:1011A20041542B43495053454E443D302C32300D6F
:1011B2000A002563002020200D0A00080C161B2DB2
:1011C200A52D1B160C080000000020A02000000026
:1011D200007F415D5D415D5D415D5D417F141C7F2E
:1011E200415D5D415D5D414141417F141C7F415D37
:1011F2005D414141414141417F141C7F4141414197
:101202004141414141417F141C00000000000000A7
:1012120000000080800000000000000000000000CC
:1012220000000000000000808000000000008080BC
:10123200000000808080808000000000000000002C
:10124200000000000080808080800000008080809C
:10125200808080808000000000000000000080800C
:1012620080000000808080800000000000008080FC
:10127200808000000000008080808080800000006C
:1012820000000000000000000000000000203018F4
:10129200FC06F351F153F306FC1830200000000065
:1012A200000000C0E0FC9F9FFFF0000000FFFF076E
:1012B2000007FFFFC3C3E3F37F7F3E00000000008F
:1012C20000000C3E7FE3E3C3C7870200FFFF6363B6
:1012D200637373230100F0FF3F3FFCE08080FFFF58
:1012E200031C7E77E3E3C3C78700F0FC3E070301DC
:1012F20003C7FF7E0006FFFFFFFFC3E3E37F3E005D
:1013020000000000000000000000000000000000DB
:101312001F101111111111101F0000000000000018
:10132200183C1F0F03030303010F1F181F1F1F0089
:1013320000001F1F010103070F0F1E1C18000000F1
:10134200000018383838181D0F07001E1F1F1C1CFC
:101352001C0C0C0E04183F1F000000030F1F1F017E
:1013620000183838381C1F0F07000F1F3838381C78
:101372000F07030000001F1F00000103070F1E1CC0
:101382001810000000000000000000000000000033
:10139200000000000000000000000000000000004B
:1013A200000000000000000000000000000000003B
:1013B200000000000000000000000000000000002B
:1013C200000000000000000000000000000000001B
:1013D200000000000000000000000000000000000B
:1013E20000000000000000000000000000000000FB
:1013F20000000000000000000000000000000000EB
:1014020000000000000000000000000000000000DA
:0D14120000000000000000000000000000CD
:10002600E4900004F0780F7C007D017BFF7A147960
:100036000BFE7F14120B1BE4F5B2F5B1F5CAF5C938
:10004600D2B37F887E13121E8D121F3F121FB4E497
:10005600FFFE121B221218FB9000287420F0A374D6
:10006600FFF0A37412F0A3740BF0A37401F07B806D
:10007600E4FDFF1219C9900057E4F0A3F0A374EF52
:10008600F0121F2CE4900023F0A3F0121ED990006A
:100096000AE02FF0900009E03EF0900024E004F022
:1000A6007006900023E004F0C3900024E0942090B2
:1000B6000023E06480948040D2900009E0FEA3E033
:1000C6007805CEA2E713CE13D8F8FF900009EEF01C
:1000D600FCA3EFF0FD7E2E7F7C120B92A3EEF0A325
:1000E600EFF0121F19C2B2121EEF121CAE7D087F6E
:1000F60020121E1A1216E7900000120D4090000002
:10010600E0FCA3E0FDA3A3E4FFFEEC7810120D1AB9
:10011600900005EEF0FAA3EFF0FB900000E0FCA3E0
:10012600E0FDA3E0FEA3E0FF900007EEF0A3EFF0F2
:10013600BA0113BB9010900007E07002A3E07006AE
:10014600900004E060069000047401F090002874AA
:1001560001F0A37400F0A3744DF07B017A00794F8F
:1001660012158990004FE0FAA3E0FB7C007D0AFFA0
:10017600AE02120B92900055EEF0A3EFF07C007DDC
:100186000AAF03AE02120B9290005AECF0A3EDF008
:1001960090004DE0FAA3E0FB7C007D0AFFAE021260
:1001A6000B92900051EEF0A3EFF07C007D0AAF03B6
:1001B600AE02120B92A3ECF0A3EDF0E4900009F06E
:1001C600A3F0900023F0A3F0121ED990000AE02FAE
:1001D600F0900009E03EF0900024E004F0700690F4
:1001E6000023E004F0C3900024E09408900023E08C
:1001F6006480948040D2900009E0FEA3E07803CEAC
:10020600A2E713CE13D8F8FF900009EEF0A3EFF0A3
:10021600A3E0FCA3E0FD120B80A3EEF0A3EFF090A9
:10022600004FE0FCA3E0FDEC90000FF0EDA3F09092
:10023600004DE0FCA3E0FDEC900011F0EDA3F09082
:100246000005E0FCA3E0FDEC900013F0EDA3F090B8
:100256000007E0FCA3E0FDEC900015F0EDA3F090A4
:10026600000DE0FCA3E0FDEC900017F0EDA3F07BA1
:10027600FF7A1179A2120EA87F147E00121E8DE459
:10028600900023F0A3F0900023E0FEA3E0FFC394C8
:1002960014EE6480948050287BFF7A1179B4740F31
:1002A6002FF58274003EF583E0900028F0120EA828
:1002B600900024E004F070CE900023E004F080C6A5
:1002C6007F147E00121E8D7BFF7A1179B7120EA85D
:1002D6007FA47E06121E8D90000D74A4F0A37410E8
:1002E600F0E4FFFE121B221218FB9000287408F09F
:1002F600A374FFF0A37411F0A374BDF0A37401F00E
:100306007B0BE4FDFF1219C990000DE0FEA3E0FF90
:10031600E4FCFD7B287AA0F9F8C3120D0450139073
:1003260000287408F0A374FFF0A37411F0A374D32B
:10033600806090000DE0FEA3E0FFE4FCFD7B587AB0
:1003460098F9F8C3120D0450139000287408F0A30E
:1003560074FFF0A37411F0A374E1803690000DE0F1
:10036600FEA3E0FFE4FCFD7B887A90F9F8C3120D4A
:10037600049000287408500EF0A374FFF0A37411C3
:10038600F0A374EF800CF0A374FFF0A37411F0A334
:1003960074FDF0A37401F07B0EE4FD7F721219C99F
:1003A600121DC2900005E064017004A3E064906031
:1003B6000302046A900007E07002A3E060030204EF
:1003C6006A900004E0600302046A9000357410F03D
:1003D600A37401F07B3D7D027F1212141F9000353D
:1003E6007410F0A37401F07B3A7D027F1A12141F79
:1003F6009000357410F0A37401F07B3B7D027F22E0
:1004060012141F9000357410F0A37401F07B3C7D2C
:10041600027F2A12141F9000357410F0A37401F0A5
:100426007B3D7D027F4E12141F9000357410F0A3A1
:100436007401F07B3A7D027F5612141F90003574CA
:1004460010F0A37401F07B3B7D027F5E12141F90B7
:1004560000357410F0A37401F07B3C7D027F6612B8
:10046600141F804C900007E0FEA3E0FFE4FCFD9023
:100476000027120D4090002B7403F0A37410F0A314
:100486007401F07D027F1612180B900005E0FEA3A2
:10049600E0FFE4FCFD900027120D4090002B740352
:1004A600F0A37410F0A37401F07D027F4E12180BB6
:1004B6007FD07E07121E8DE4FFFE121B22900028BD
:1004C6007408F0A374FFF0A37411F0A374BDF0A335
:1004D6007401F07B0BE4FDFF1219C990000DE0FEDC
:1004E600A3E0FFE4FCFD7B287AA0F9F8C3120D0413
:1004F60050139000287408F0A374FFF0A37411F051
:10050600A374D3806090000DE0FEA3E0FFE4FCFD41
:100516007B587A98F9F8C3120D045013900028748A
:1005260008F0A374FFF0A37411F0A374E180369071
:10053600000DE0FEA3E0FFE4FCFD7B887A90F9F86D
:10054600C3120D049000287408500EF0A374FFF037
:10055600A37411F0A374EF800CF0A374FFF0A374DE
:1005660011F0A374FDF0A37401F07B0EE4FD7F721D
:100576001219C9121DEE900055E0FEA3E0FFEE33FE
:1005860095E0FDFC900027120D4090002B7402F0C0
:10059600A37410F0A37401F07D027F1412180B905F
:1005A60000357410F0A37401F07B2E7D027F2412B7
:1005B600141F90005AE0FEA3E0FFEE3395E0FDFC29
:1005C600900027120D4090002B7401F0A37410F0D8
:1005D600A37401F07D027F2C12180B900051E0FEEF
:1005E600A3E0FFEE3395E0FDFC900027120D40904E
:1005F600002B7402F0A37410F0A37401F07D027F47
:100606004E12180B9000357410F0A37401F07B2E77
:100616007D027F5E12141F900053E0FEA3E0FFEE02
:100626003395E0FDFC900027120D4090002B7401DD
:10063600F0A37410F0A37401F07D027F6612180B0C
:030646000200F3BC
:101F3F00759850E4F589758BE0758DFED28E758E90
:021F4F0040222E
:03002300021D6259
:101D6200C0E0C083C082C0D075D000C001C002C034
:101D720003C29890005CE0FBA3E0FAA3E0F9E599C6
:101D8200120B6ED003D002D001D0D0D082D083D03B
:021D9200E0323D
:0C1F9C00C2AC8F993099FDC299D2AC22E2
:051FC100D2CDD2CC22BC
:071F7200121F79D2CC7F643D
:071F7900AE071FEE70FA2213
:101EAB00D2CDD2CC7F32121F79C2CD7F32121F79A5
:071EBB00C2CC7F32021F7947
:101EC200C2CDC2CC7F32121F79D2CC7F32121F799F
:071ED200D2CD7F32021F791F
:021BD300AD075C
:101BD500C2CC7F28121F79E4FCED30E704D2CD801A
:101BE50002C2CD7F14121F79D2CC7F14121F79C285
:101BF500CC7F14121F79ED25E0FD0CECB408DA7FDB
:101C050002121F79D2CD7F64121F7230CD05C2CC6E
:071C15007F0122C2CC7F0019
:011C1C0022A5
:021B8800AD07A7
:101B8A00E4FBC2CC7F50121F79D2CDE4FCD2CC7FC9
:101B9A0005121F79EB25E0FB30CD054401FB8004DB
:101BAA00EB54FEFB7F14121F79C2CC7F3C121F79C3
:101BBA000CECB408D8ED24FF92CD7F3C121F72C200
:081BCA00CC7F2C121F79AF0340
:011BD20022F0
:0B1F6200121E4B121F6DAF04121E4B2D
:051F6D00D2CCC2CC2221
:071E4400AC07121EAB7F7812
:101E4B00C2CCE4FEAD07ED5480B48004D2CD800249
:0F1E5B00C2CDEF25E0FFD2CCC2CC0EEEB408E52D
:011E6A002255
:0E1F8000121E44121F6DE4FF121F62021EC2E9
:0E1F8E00121E44121F6D7F40121F62021EC2FF
:071FB4007D037F20021E1ACD
:101E1A00900025EFF0A3EDF0121EAB7FB0121BD39A
:101E2A00900025E0FF121BD3900026E0FF121BD37F
:0A1E3A00121EC27F647E00021E8D9E
:1016E700121EAB7FB1121BD3E4FF121B88E4FCFD73
:1016F700FE900025120D40900025E0FCA3E0FDA31D
:10170700E0FEA3E0FF7808120D2D900025120D4092
:10171700900025E0F8A3E0F9A3E0FAA3E0FBC000FE
:10172700C001C002C003E4FF121B88E4FCFDFED029
:1017370003D002D001D000EB2FFFEE3AFEED39FDCA
:10174700EC38FC900025120D40E4FF121B88900036
:1017570025E0FCA3E0FDA3E0FEA3E0FF7808120D5F
:101767002D900025120D40900025E0F8A3E0F9A385
:10177700E0FAA3E0FBC000C001C002C003E4FF120F
:101787001B88E4FCFDFED003D002D001D000EB2F74
:10179700FFEE3AFEED39FDEC38FC900025120D40C6
:1017A700900025E0FCA3E0FDA3E0FEA3E0FF78089E
:1017B700120D2D900025120D40900025E0F8A3E0B2
:1017C700F9A3E0FAA3E0FBC000C001C002C0037F99
:1017D70001121B88E4FCFDFED003D002D001D0002B
:1017E700EB2FFFEE3AFEED39FDEC38FC90002512A9
:1017F7000D40121EC2900025E0FCA3E0FDA3E0FE11
:03180700A3E0FF5C
:01180A0022BB
:101E8D00D3EF9400EE940040147DB07C04ED1D70F2
:0D1E9D00011CED4C70F7EF1F70E61E80E396
:011EAA002215
:061FBB0000000000000020
:0E1C660090003BEBF0A3EAF0A3E9F0A3EDF051
:101C74007FFFE4FE90003EE0FDEEC39D502B9000FC
:101C84003BE0FBA3E0FAA3E0F98E82758300120B1C
:101C9400416FFF7D08EF30E70725E06431FF8004E2
:091CA400EF25E0FFDDEF0E80CB1F
:011CAD002214
:081D940090003BEEF0A3EFF01C
:101D9C0090003BE0FF3395E0121BD390003DEFF039
:101DAC00E0FEC00690003BA3E0FF121BD3D0E04F37
:051DBC00FF90003DF066
:011DC10022FF
:101EEF00121FC1121EAB7F88121BD37F307E2112AF
:051EFF001D94021EC24B
:0B158900900025EBF0A3EAF0A3E9F0CE
:1015940078347C007D017BFF7A1F79BB7E007F0657
:1015A400120B1B121EAB7F88121BD390002BEFF083
:1015B400700BFF7EE0121D9490002BEFF090002B37
:1015C400E0700D121EAB7F89121BD390002BEFF03D
:1015D40090002BE0706B90003AF0E4FF121B8890AF
:1015E400003AE02434F582E43400F583EFF090000F
:1015F4003AE004F0E0C3940540E07F01121B8890B8
:10160400003AE02434F582E43400F583EFF0121E4E
:10161400C27B017A0079347D02121C66900036E0A8
:101624006F600690002B7402F07B017A0079377D9D
:1016340002121C66900039E06F600690002B740261
:10164400F090002BE060030216E1900034E0FEA36A
:10165400E0FDEDFFE4FCFD90002C120D40900037FE
:10166400E0FEA3E0FDEDFFE4FCFD900030120D4030
:10167400E47FD67E06FDFC90002CE0F8A3E0F9A3FD
:10168400E0FAA3E0FB120BE7E47BFF7AFFF9F81220
:101694000C72EF243EFFEE34FEF9900025E0FBA32C
:1016A400E0FAA3E0C98FF0120BC8E47FE87E03FDE3
:1016B400FC900030E0F8A3E0F9A3E0FAA3E0FB1209
:1016C4000BE7E47BFF7AFFF9F8120C72900028E034
:1016D400FBA3E0FAA3E0F9EE8FF0120BC890002B05
:0216E400E0FF25
:0116E60022E1
:1000030054564F432F50706200434F322F50706D40
:100013000054454D502F2A430048494D492F250090
:101DC2007BFF7A00790390002A7408F0A37401F073
:101DD200FD7F0C121A8E7BFF7A00790C90002A7418
:0C1DE20008F0A37401F0FD7F47021A8E88
:101DEE007BFF7A00791490002A7408F0A37401F036
:101DFE00FD7F0F121A8E7BFF7A00791C90002A74D9
:0C1E0E0008F0A37401F0FD7F4A021A8E58
:061E6B007F8DE4FDFCFE8A
:101E710090003BEEF0A3EFF0ED4C90003B6006A329
:0C1E8100E0FF021F8EA3E0FF121F802272
:101D2D0090003AEFF0ED24B0FFE433FEE4FDFC1239
:101D3D001E7190003AE054F0C4540F7E004410FF21
:101D4D00E4FDFC121E7190003AE0540FFF7E00E49A
:051D5D00FDFC021E71F7
:101F5100121E6B7F14121E6DE4FDFC7FAFFE021E8C
:011F6100710E
:101F0400121E6BE4FDFC7F10FE121E71E4FDFC7FCB
:051F1400AEFE021E718B
:101B2200EF4E600890002774FFF08005E4900027D4
:101B3200F0E4900025F0900025E0FFC394045045A6
:101B4200EF24B0FFE433FEE4FDFC121E71E4FDFC61
:101B5200FFFE121E71E4FDFC7F10FE121E71E49066
:101B62000026F0900027E0FF7E007D017C00121E1F
:101B720071900026E004F0E0C3948040E6900025D6
:051B8200E004F080B159
:011B8700223B
:1018FB00121F04E4FDFC7FAEFE121E71E4FDFC7FA3
:10190B0040FE121E71E4FDFC7FB0FE121E71E4FD61
:10191B00FC7FC8FE121E71E4FDFC7F81FE121E715E
:10192B00E4FDFC7FFFFE121E71E4FDFC7FA1FE12A5
:10193B001E71E4FDFC7FA6FE121E71E4FDFC7FA868
:10194B00FE121E71E4FDFC7F1FFE121E71E4FDFCF6
:10195B007FD3FE121E71E4FDFCFFFE121E71E4FD2F
:10196B00FC7FD5FE121E71E4FDFC7FF0FE121E7192
:10197B00E4FDFC7FD9FE121E71E4FDFC7F22FE12FA
:10198B001E71E4FDFC7FDAFE121E71E4FDFC7F028A
:10199B00FE121E71E4FDFC7FDBFE121E71E4FDFCEA
:1019AB007F49FE121E71121E6BE4FDFC7F14FE12AA
:0E19BB001E71E4FDFC7FAFFE121E71021F5173
:100649000000000000000000002F0000000007006B
:10065900070000147F147F1400242A7F2A120062E5
:100669006408132300364955225000000503000091
:1006790000001C224100000041221C00000609095B
:1006890006000008083E0808000000A060000008F5
:100699000808080800006060000000201008040233
:1006A900003E5149453E0000427F400000426151F1
:1006B9004946002141454B31001814127F1000278B
:1006C90045454539003C4A4949300001710905034E
:1006D90000364949493600064949291E000036367F
:1006E90000000000563600000008142241000014E2
:1006F90014141414000041221408000201510906BF
:1007090000324959513E007C1211127C007F49493F
:100719004936003E41414122007F4141221C007F70
:1007290049494941007F09090901003E4149497A7E
:10073900007F0808087F0000417F410000204041F8
:100749003F01007F08142241007F40404040007F64
:10075900020C027F007F0408107F003E4141413EA8
:10076900007F09090906003E4151215E007F0919F0
:1007790029460046494949310001017F0101003FED
:100789004040403F001F2040201F003F4038403F6D
:1007990000631408146300070870080700615149D1
:1007A900454300007F414100000204081020000079
:1007B90041417F00000402010204004040404040E2
:1007C900000001020400002054545478007F48447A
:1007D900443800384444442000384444487F0038B1
:1007E9005454541800087E0901020018A4A4A47CDA
:1007F900007F080404780000447D400000408084A4
:100809007D00007F102844000000417F4000007CEB
:1008190004180478007C08040478003844444438F7
:1008290000FC242424180018242418FC007C080443
:10083900040800485454542000043F444020003C1C
:100849004040207C001C2040201C003C4030403CA3
:10085900004428102844001CA0A0A07C0044645433
:100869004C440000000000000000000000000000EF
:100879000000000000F80000000000000033300014
:10088900000000100C06100C06000000000000001B
:10089900000040C07840C0784000043F04043F0491
:1008A9000400007088FC08300000001820FF211E99
:1008B9000000F008F000E018000000211C031E21D0
:1008C9001E0000F00888700000001E21232419274B
:1008D900211010160E0000000000000000000000AA
:1008E9000000000000E018040200000000071820C2
:1008F900400000020418E000000000402018070032
:100909000000404080F0804040000202010F0102D7
:100919000200000000F0000000000101011F0101B8
:100929000100000000000000000080B0700000001D
:1009390000000000000000000000000101010101A9
:10094900010100000000000000000030300000003C
:100959000000000000008060180400601806010013
:10096900000000E010080810E000000F102020101F
:100979000F00001010F8000000000020203F202088
:10098900000000700808088870000030282422211F
:1009990030000030088888483000001820202011D5
:1009A9000E000000C02010F8000000070424243FB6
:1009B900240000F80888880808000019212020115F
:1009C9000E0000E0108888180000000F1120201187
:1009D9000E0000380808C83808000000003F000071
:1009E90000000070880808887000001C222121225C
:1009F9001C0000E010080810E0000000312222115C
:100A09000F000000C038E0000000203C230202274C
:100A19003820000808F8080800000020203F20209E
:100A29000000180808F8080818000000203F2000F6
:100A39000000F80800F80008F800033C0700073C2C
:020A49000300A8
:0B141F00900033EDF0900032EFF0FD84
:10142A00E4900037F0A3F0A3F0EB24E0900037F04B
:10143A00EDD3947F400AE4900032F0A3E02402F056
:10144A00900035E064106003021510900039F090A6
:10145A000039E0FEC394024003021588900032E08E
:10146A00FFA3E02EFD121D2DE4900038F090003805
:10147A00E0FFC394084003021507900036E060338A
:10148A00A3E075F010A42FF582E435F0F583C0834C
:10149A00C082900039E0D082D08375F008120D7DA9
:1014AA00E582246BF582E5833408F583E493FF7EB5
:1014BA0000803A900038E0FF900037E075F010A401
:1014CA002FF582E435F0F583C083C082900039E0BD
:1014DA00D082D08375F008120D7DE582246BF582E7
:1014EA00E5833408F583E493F4FFE4F4FE7D017C9C
:1014FA0000121E71900038E004F00214779000394F
:10150A00E004F0021459900032E0FFA3E0FD121D3E
:10151A002DE4900038F0900038E0FFC39406505E46
:10152A00900036E06021A3E075F006A42449F58214
:10153A00E5F03406F583E5822FF582E43583F583F9
:10154A00E493FF7E008028900038E0FF900037E0A7
:10155A0075F006A42449F582E5F03406F583E582A0
:10156A002FF582E43583F583E493F4FFE4F4FE7DFA
:0E157A00017C00121E71900038E004F0809891
:011588002240
:101A8E00900025EFF0A3EDF0A3EBF0A3EAF0A3E9AD
:011A9E00F057
:101A9F00E490002CF090002AE0B41004C313800EE1
:101AAF0090002AE0FF64087069EFC31324029000CE
:101ABF002DF0900027E0FBA3E0FAA3E0F990002CB3
:101ACF00E0F582758300120B41FB6046900025E024
:101ADF00FFA3E0FD90002AE0900035F090002BE08E
:101AEF00900036F012141F90002DE0FF900025E0BB
:101AFF002FF0E0D394784012E4F090002AE0131313
:101B0F0013541FFF900026E02FF090002CE004F0FC
:021B1F0080A0A4
:011B210022A1
:081C1D00900032EFF0A3EDF09E
:101C2500A3120D4C00000001900033E0FF14F0EF0B
:101C35006020A3E0F8A3E0F9A3E0FAA3E0FB90009D
:101C450032E0FFE4FCFDFE120BE7900034120D407C
:101C550080D6900034E0FCA3E0FDA3E0FEA3E0FF06
:011C6500225C
:08180B00900025EFF0A3EDF0C1
:10181300E4900030F090002CE0B41004C313801166
:1018230090002CE0FF640860030218FAEFC313244E
:1018330002900031F0E490002EF090002BE0FF9036
:10184300002EE0FEC39F40030218FAC3EF9E14FD6F
:101853007F0A121C1DA804A905AA06AB079000273E
:10186300E0FCA3E0FDA3E0FEA3E0FF120C72E47B27
:101873000AFAF9F8120C7290002FEBF0A3E0703E15
:1018830090002BE014FF90002EE0FEC39F502FA387
:10189300E07025900031E08EF0A4FF900025E02F4A
:1018A300FFA3E0FD90002CE0900035F090002DE0C8
:1018B300900036F07B2080339000307401F090006C
:1018C3002EE0FF900031E08FF0A4FF900025E02F81
:1018D300FFA3E0FD90002FE02430FB90002CE0906C
:1018E3000035F090002DE0900036F012141F9000A8
:0718F3002EE004F002183D95
:0118FA0022CB
:0B19C900900025EFF0A3EDF0A3EBF081
:1019D400E490002DF0900028E02407FFE433FEEFAC
:1019E4007803CEC313CE13D8F9FF90002DE0FEC3C5
:1019F4009F4003021A8D900025E0FFA3E02EFD1204
:101A04001D2DE490002EF0900027E0FF90002EE0C2
:101A1400FDC39F506B90002CE06021A3E08FF0A4E5
:101A24007C002DFFEC35F0FE900029E0FBA3E0FAEA
:101A3400A3E0F98F828E83120B41802A900027E065
:101A4400FF90002DE08FF0A4FFA3E07C002FFFECBB
:101A540035F0FE900029E0FBA3E0FAA3E0F98F82C1
:101A64008E83120B41F490002FF090002FE0FF7E44
:101A7400007D017C00121E7190002EE004F080872E
:091A840090002DE004F00219D9D4
:011A8D002236
:101F190043BA8090FEA8743FF053BA7F75DE2F75DF
:031F2900BC832254
:101F2C0043BA8090FEA8743FF053BA7F75DE2F75CC
:031F3C00BC8F2235
:101ED90043BC400000E5BC30E5FB53BCDFAFBDEFC0
:051EE900FEADBEEDFF9F
:011EEE0022D1
:101CEE0041542B43574D4F44455F4445463D320DBD
:101CFE000A0041542B5253540D0A0041542B4349B0
:101D0E00504D55583D310D0A0041542B4349505307
:0F1D1E0045525645523D312C363636360D0A00A9
:101CAE007BFF7A1C79EE120EA87F2C7E01121E8D00
:101CBE007BFF7A1D7900120EA87FB07E04121E8D56
:101CCE007BFF7A1D7909120EA87F2C7E01121E8DC4
:101CDE007BFF7A1D7917120EA87F2C7E01021E8DB6
:03000000021FA834
:0C1FA800787FE4F6D8FD75812102002648
:100A4B00E709F608DFFA8046E709F208DFFA803E8D
:100A5B0088828C83E709F0A3DFFA8032E309F6087A
:100A6B00DFFA8078E309F208DFFA807088828C83E2
:100A7B00E309F0A3DFFA806489828A83E0A3F60896
:100A8B00DFFA805889828A83E0A3F208DFFA804C70
:100A9B0080D280FA80C680D4806980F28033801047
:100AAB0080A680EA809A80A880DA80E280CA8033B0
:100ABB0089828A83ECFAE493A3C8C582C8CCC58328
:100ACB00CCF0A3C8C582C8CCC583CCDFE9DEE780F8
:100ADB000D89828A83E493A3F608DFF9ECFAA9F077
:100AEB00EDFB2289828A83ECFAE0A3C8C582C8CCCD
:100AFB00C583CCF0A3C8C582C8CCC583CCDFEADEE6
:100B0B00E880DB89828A83E493A3F208DFF980CC47
:100B1B0088F0EF60010E4E60C388F0ED2402B40440
:100B2B000050B9F582EB2402B4040050AF232345E7
:060B3B008223900A9B7367
:100B4100BB010CE58229F582E5833AF583E0225069
:100B510006E92582F8E622BBFE06E92582F8E222B3
:0D0B6100E58229F582E5833AF583E49322CD
:100B6E00BB010689828A83F0225002F722BBFE0166
:020B7E00F32260
:100B8000EF8DF0A4A8F0CF8CF0A428CE8DF0A42E89
:020B9000FE2243
:100B9200C2D5EC30E709B2D5E4C39DFDE49CFCEE7E
:100BA20030E715B2D5E4C39FFFE49EFE120DA2C347
:100BB200E49DFDE49CFC8003120DA230D507C3E442
:060BC2009FFFE49EFE22ED
:100BC800BB010A89828A83F0E5F0A3F0225006F778
:0F0BD80009A7F01922BBFE06F3E5F009F3192275
:100BE700E88FF0A4CC8BF0A42CFCE98EF0A42CFCAD
:100BF7008AF0EDA42CFCEA8EF0A4CDA8F08BF0A42B
:100C07002DCC3825F0FDE98FF0A42CCD35F0FCEB89
:100C17008EF0A4FEA9F0EB8FF0A4CFC5F02ECD394E
:0F0C2700FEE43CFCEAA42DCE35F0FDE43CFC22BB
:100C360075F008758200EF2FFFEE33FECD33CDCC75
:100C460033CCC58233C5829BED9AEC99E5829840F8
:100C56000CF582EE9BFEED9AFDEC99FC0FD5F0D6D5
:100C6600E4CEFBE4CDFAE4CCF9A88222B800C1B9FF
:100C76000059BA002DEC8BF084CFCECDFCE5F0CB3D
:100C8600F97818EF2FFFEE33FEED33FDEC33FCEB76
:100C960033FB10D703994004EB99FB0FD8E5E4F931
:100CA600FA227818EF2FFFEE33FEED33FDEC33FC1E
:100CB600C933C910D7059BE99A4007EC9BFCE99A12
:100CC600F90FD8E0E4C9FAE4CCFB2275F010EF2F57
:100CD600FFEE33FEED33FDCC33CCC833C810D70757
:100CE6009BEC9AE899400AED9BFDEC9AFCE899F892
:0E0CF6000FD5F0DAE4CDFBE4CCFAE4C8F92225
:100D0400EB9FF5F0EA9E42F0E99D42F0EC6480C866
:060D140064809845F02206
:100D1A00E8600FECC313FCED13FDEE13FEEF13FFB7
:030D2A00D8F122DB
:100D2D00E8600FEFC333FFEE33FEED33FDEC33FC24
:030D3D00D8F122C8
:0C0D4000ECF0A3EDF0A3EEF0A3EFF02226
:100D4C00A8828583F0D083D082120D63120D6312BA
:100D5C000D63120D63E473E493A3C583C5F0C583DF
:100D6C00C8C582C8F0A3C583C5F0C583C8C582C8F1
:010D7C002254
:0C0D7D00A42582F582E5F03583F5832281
:100E3D00E5082428F582E43400F583E005082290C6
:100E4D000025300703900028E475F001120DF7021C
:100E5D000D892000E97F2ED2008018EF540F2490C9
:100E6D00D43440D4FF30040BEF24BFB41A00500328
:100E7D002461FFE50960021509050CE50C700205FA
:100E8D000B30070E900025E475F001120DF7EF02FF
:100E9D000B6E021F9C7403D2078003E4C207F50892
:100EAD00900025120E0EE4F509F50BF50CE5096021
:100EBD00077F20120E8080F5750AFFC201C200C2A5
:100ECD0002C203C205C206C208120E4CFF700D30DD
:100EDD0007057F00120E91AF0CAE0B22B4255FC239
:100EED00D5C204120E4CFF24D0B40A00501A75F06E
:100EFD000A780930D50508B6FF0106C6A426F620E6
:100F0D00D5047002D20380D924CFB41A00EF500457
:100F1D00C2E5D204021092D20180C6D20080C0D2A6
:100F2D000280BCD2D580BAD20580B47F20120E804B
:100F3D002002077401B5090040F1120E3DFF120E9B
:100F4D0080020EBAD208D2068095120E3DFB120E0B
:100F5D003DFA120E3DF94A4B700679637A117BFF0B
:100F6D0020022EE509602A7E008E82758300120B09
:100F7D004160060EEE650A70F0C2D5EBC0E0EAC026
:100F8D00E0E9C0E0EE1210D9D0E0F9D0E0FAD0E0FF
:100F9D00FB120D89FF60AAEBC0E0EAC0E0E9C0E0FA
:100FAD00120E80D0E02401F9D0E03400FAD0E0FB3D
:100FBD00E50A0460DCD50AD980877BFF7A1079D5E4
:100FCD00D202809C791080027908C206C20880087E
:100FDD00D2D5790A8004790AC2D5E50A047002F5E2
:100FED000AE4FAFDFEFF120E3DFC7B0820011312F0
:100FFD000E3DFD7B1030000A120E3DFE120E3DFF20
:10100D007B20EC3382D592D55013C3E43000069F7C
:10101D00FFE49EFEE42001039DFDE49CFCE4CBF87F
:10102D00C201EC700CCFCECDCCE824F8F870F38073
:10103D0017C3EF33FFEE33FEED33FDEC33FCEB3333
:10104D00FB994002FB0FD8E9EB300105F8D0E0C465
:10105D0048B201C0E00AEC4D4E4F78207B0070C2C3
:10106D00EAB50A0040BCC0E01210DBD0F0D0E020A1
:10107D000104C4C0E0C4B201C0F0120E69D0F0D5B5
:10108D00F0EB020EBA120E170F57530FD1580F284F
:10109D004C0F24420FD54F0FDD440FDD490F3D435B
:0810AD000FE3550FC7460FC702
:1010B500450FC7471183500F2C2D0F302E0F532B83
:1010C5000F34230F5120116C2A0EEC4800000F4BF2
:1010D5003F3F3F00790AA2D5200314300509B91016
:1010E500020404B9080104A2D52006025001042017
:1010F50002689202B509005034C0E07F2030031920
:101105007F30A20272067205500F121132C202C25E
:1011150006C205C2087F30800F300503E9C0E01222
:101125000E80300503D0E0F9D0E0B509CC300517C5
:101135007F30B9100C120E807F583004077F7880FD
:1011450003B90803120E803002057F2D020E807F41
:10115500202008F87F2B2006F322920280CF286EEC
:10116500756C6C2900D201120E3D3001F8C2017870
:101175000930D50108F6020EEC2D50434958120EE0
:101185003D2403B405004001E490117E93120E71D5
:0D119500743A120E71D203750904020FD1D5
:100D8900BB010689828A83E0225002E722BBFE0268
:090D9900E32289828A83E493229B
:100DA200BC000BBE0029EF8DF084FFADF022E4CC35
:100DB200F875F008EF2FFFEE33FEEC33FCEE9DECFE
:100DC200984005FCEE9DFE0FD5F0E9E4CEFD22ED44
:100DD200F8F5F0EE8420D21CFEADF075F008EF2F8E
:100DE200FFED33FD4007985006D5F0F222C398FD7F
:050DF2000FD5F0EA221C
:100DF700F8E0FBA3A3E0F925F0F0E5821582700285
:070E07001583E0FA38F02228
:090E0E00EBF0A3EAF0A3E9F022E5
:100E1700D083D082F8E4937012740193700DA3A36A
:100E270093F8740193F5828883E47374029368607E
:060E3700EFA3A3A380DF7E
:00000001FF
